:020000040000fa
:080000000002040000000000f2
:020000040000fa
:0400080038030000b9
:020000040000fa
:04000c0038030000b5
:020000040000fa
:0400100038030000b1
:020000040000fa
:0400140038030000ad
:020000040000fa
:0400180038030000a9
:020000040000fa
:04001c0038030000a5
:020000040000fa
:0400200038030000a1
:020000040000fa
:04002400380300009d
:020000040000fa
:04002800c80200000a
:020000040000fa
:04002c003803000095
:020000040000fa
:040030003803000091
:020000040000fa
:04003400380300008d
:020000040000fa
:040038003803000089
:020000040000fa
:04003c003803000085
:020000040000fa
:040040003803000081
:020000040000fa
:04004400fc020000ba
:020000040000fa
:04004800120300009f
:020000040000fa
:04004c003803000075
:020000040000fa
:040050003803000071
:020000040000fa
:04005400380300006d
:020000040000fa
:040058003803000069
:020000040000fa
:04005c003803000065
:020000040000fa
:040060003803000061
:020000040000fa
:04006400380300005d
:020000040000fa
:040068003803000059
:020000040000fa
:04006c003803000055
:020000040000fa
:040070003803000051
:020000040000fa
:04007400380300004d
:020000040000fa
:04007800ec02000096
:020000040000fa
:04007c003803000045
:020000040000fa
:040080003803000041
:020000040000fa
:04008400380300003d
:020000040000fa
:040088003803000039
:020000040000fa
:04008c003803000035
:020000040000fa
:040090003803000031
:020000040000fa
:04009400280300003d
:020000040000fa
:040098003003000031
:020000040000fa
:04009c00f40200006a
:020000040000fa
:0400a0003803000021
:020000040000fa
:0400a400380300001d
:020000040000fa
:0400a8003803000019
:020000040000fa
:0400ac003803000015
:020000040000fa
:0400b0003803000011
:020000040000fa
:0400b400380300000d
:020000040000fa
:0400b8003803000009
:020000040000fa
:0400bc003803000005
:020000040000fa
:0400c0003803000001
:020000040000fa
:0400c40038030000fd
:020000040000fa
:0400c80038030000f9
:020000040000fa
:0400cc0038030000f5
:020000040000fa
:0400d00038030000f1
:020000040000fa
:0400d40038030000ed
:020000040000fa
:0400d80038030000e9
:020000040000fa
:0400dc0038030000e5
:020000040000fa
:0400e00038030000e1
:020000040000fa
:0400e40038030000dd
:020000040000fa
:0400e80038030000d9
:020000040000fa
:0400ec0038030000d5
:020000040000fa
:0400f00038030000d1
:020000040000fa
:0400f40038030000cd
:020000040000fa
:0400f80038030000c9
:020000040000fa
:0400fc0038030000c5
:020000040000fa
:0401000038030000c0
:020000040000fa
:0401040038030000bc
:020000040000fa
:0401080038030000b8
:020000040000fa
:04010c0038030000b4
:020000040000fa
:0401100038030000b0
:020000040000fa
:0401140038030000ac
:020000040000fa
:0401180038030000a8
:020000040000fa
:04011c0038030000a4
:020000040000fa
:0401200038030000a0
:020000040000fa
:04012400380300009c
:020000040000fa
:040128003803000098
:020000040000fa
:04012c003803000094
:020000040000fa
:040130003803000090
:020000040000fa
:04013400380300008c
:020000040000fa
:040138003803000088
:020000040000fa
:04013c003803000084
:020000040000fa
:040140003803000080
:020000040000fa
:04014400380300007c
:020000040000fa
:040148003803000078
:020000040000fa
:04014c003803000074
:020000040000fa
:040150003803000070
:020000040000fa
:04015400380300006c
:020000040000fa
:040158003803000068
:020000040000fa
:04015c003803000064
:020000040000fa
:040160003803000060
:020000040000fa
:04016400380300005c
:020000040000fa
:0402080038030000b7
:020000040000fa
:04020c0038030000b3
:020000040000fa
:0402100038030000af
:020000040000fa
:0402140038030000ab
:020000040000fa
:0402180038030000a7
:020000040000fa
:04021c0038030000a3
:020000040000fa
:04022000380300009f
:020000040000fa
:04022400380300009b
:020000040000fa
:040228003803000097
:020000040000fa
:04022c003803000093
:020000040000fa
:04023000380300008f
:020000040000fa
:04023400380300008b
:020000040000fa
:040238003803000087
:020000040000fa
:04023c003803000083
:020000040000fa
:04024000380300007f
:020000040000fa
:04024400380300007b
:020000040000fa
:040248003803000077
:020000040000fa
:04024c003803000073
:020000040000fa
:04025000380300006f
:020000040000fa
:04025400380300006b
:020000040000fa
:040258003803000067
:020000040000fa
:04025c003803000063
:020000040000fa
:04026000380300005f
:020000040000fa
:04026400380300005b
:020000040000fa
:040268003803000057
:020000040000fa
:04026c003803000053
:020000040000fa
:04027000380300004f
:020000040000fa
:04027400380300004b
:020000040000fa
:040278003803000047
:020000040000fa
:04027c003803000043
:020000040000fa
:04028000380300003f
:020000040000fa
:04028400380300003b
:020000040000fa
:040288003803000037
:020000040000fa
:04028c003803000033
:020000040000fa
:04029000380300002f
:020000040000fa
:04029400380300002b
:020000040000fa
:040298003803000027
:020000040000fa
:04029c003803000023
:020000040000fa
:0402a000380300001f
:020000040000fa
:0402a400380300001b
:020000040000fa
:0402a8003803000017
:020000040000fa
:0402ac003803000013
:020000040000fa
:0402b000380300000f
:020000040000fa
:0402b400380300000b
:020000040000fa
:0402b8003803000007
:020000040000fa
:0402bc003803000003
:020000040000fa
:0402c00038030000ff
:020000040000fa
:0402c40038030000fb
:020000040000fa
:0402c80038030000f7
:020000040000fa
:0402cc0038030000f3
:020000040000fa
:0402d00038030000ef
:020000040000fa
:0402d40038030000eb
:020000040000fa
:0402d80038030000e7
:020000040000fa
:0402dc0038030000e3
:020000040000fa
:0402e00038030000df
:020000040000fa
:0402e40038030000db
:020000040000fa
:0402e80038030000d7
:020000040000fa
:0402ec0038030000d3
:020000040000fa
:0402f00038030000cf
:020000040000fa
:0402f40038030000cb
:020000040000fa
:0402f80038030000c7
:020000040000fa
:0402fc0038030000c3
:020000040000fa
:0403000038030000be
:020000040000fa
:0403040038030000ba
:020000040000fa
:0403080038030000b6
:020000040000fa
:04030c0038030000b2
:020000040000fa
:0403100038030000ae
:020000040000fa
:0403140038030000aa
:020000040000fa
:0403180038030000a6
:020000040000fa
:04031c0038030000a2
:020000040000fa
:04032000380300009e
:020000040000fa
:04032400380300009a
:020000040000fa
:040328003803000096
:020000040000fa
:04032c003803000092
:020000040000fa
:04033000380300008e
:020000040000fa
:04033400380300008a
:020000040000fa
:040338003803000086
:020000040000fa
:04033c003803000082
:020000040000fa
:04034000380300007e
:020000040000fa
:04034400380300007a
:020000040000fa
:040348003803000076
:020000040000fa
:04034c003803000072
:020000040000fa
:04035000380300006e
:020000040000fa
:04035400380300006a
:020000040000fa
:040358003803000066
:020000040000fa
:04035c003803000062
:020000040000fa
:04036000380300005e
:020000040000fa
:04036400380300005a
:020000040000fa
:100400000f8520000e7f24000e01880000000000f0
:10041000000020000000e000020032000001200087
:100420002002880014000700930007000000e0008d
:1004300003003a0060b621000100200002003700ee
:100440000000200001002000810f70000100320038
:1004500014000700000020000000e000020032004d
:100460000000020000000000201c0200000000004c
:100470000040da000000fe004440a900e002200035
:100480000000e0000300320000002000a00188000e
:100490004440a800000006008a1f78008b1f7800e7
:1004a0000000060091018800800478000000eb0045
:1004b0001a003700e284440032a0b4009905ba0063
:1004c000e284440032a0b4009906ba00e2844400f9
:1004d00032a0b4000006eb00476fde00fd07b2005b
:1004e000636ce10003003a00ebff07000000eb0043
:1004f0000a003700606ce10004003a00005deb0088
:100500008b05e900fdff3e00040037006168e10053
:10051000010032000086eb000b00070019c7ba008b
:100520001905ba000e04e00003003a000a00e000da
:10053000e0ff3a0000000600fe07b2009e018800be
:100540008a047800f5ff3700395dba008b05e900b1
:100550000c003200295dba008b05e900080032006a
:100560000c00e00003003a00e284440032a0b40032
:10057000f5ff370019ddba008b05e900faff3a00f4
:100580008904e800e184440032a0b40000000600c1
:10059000801f78000000fa008400a9001004800089
:1005a000610060000000e000040032001000200044
:1005b000604188008200a900020037002c28ef006b
:1005c0008200a80060418000204188000080fa007d
:1005d0004f007800004006000000fa008680a90065
:1005e0000080fa00004006000000fa0087a0a90081
:1005f0000080fa0000400600801f78000000fa002a
:10060000604080000000e80060408800100020008a
:100610008040880084e0a9000080fa004f00780044
:1006200000400600801f78000000fa007040800043
:100630000000e80070408800100020009040880012
:100640008500a9000080fa004f00780000400600f5
:100650000000fa008760a9000080fa000040060050
:100660000000fa008780a9000080fa000040060020
:100670000040da000000fe000000050003f0a200c8
:10068000889fbe008a9fbe008c1f7800fa0007007a
:10069000010133006450e1004f0032006420e100aa
:1006a0005200320003826c0007003b000905d000b5
:1006b0000306d000820f54000c065d0002003900d2
:1006c0000200320089017800030678008582550017
:1006d00004003d000003fd008103fd008502ea00e7
:1006e0008b854200840f720002003b006000100006
:1006f000e08018006011b8000005eb007a28e100e6
:100700000a00390006007800c75ddd00f707b20077
:10071000878075002d003700828171000a01780002
:10072000610560008180d1000080d3008502e9006e
:10073000f9ff3b00060440008784480002003b00ac
:1007400060041400e0841c000988a3000700320044
:100750008a81710082817100610164008904d10085
:100760000884d3008b05e800170037000978a30040
:1007700013003a000b00e000130034008b05e90081
:100780000804440089844c000a4474000978a300da
:100790000d003a000b00e000070034008b05e90073
:1007a0000804440089844c0001003a000b0020003a
:1007b0000978a300f7ff32000001eb0002003700c8
:1007c000828171000a017800700007000cf0a70018
:1007d00001f0a000b90037006420e10002003a00f7
:1007e000838f6c00b90033000801be000200be0018
:1007f000b2003700889fbe008a9fbe008c1f780021
:100800009d000700a400330003866c006450e100e3
:100810002e0032006420e100330032006150e1001c
:100820002f0032006120e100310032008585550043
:10083000eb07b00009002000080420000500370085
:100840000804440089844c000a0031000603430078
:1008500087834b000001530081815b00f8ff330068
:100860000203be000800a0000804440089844c0074
:10087000f6ff3900c639dd00830173000100320044
:10088000130020008904d1000884d3000998a30034
:10089000050032000800a7000300a0008904d10071
:1008a0000884d3008b05e8008904d1000884d300b4
:1008b0000001eb000281d2003400070001f0a1002a
:1008c0000cf0a70001f0a0007c0037006420e100dc
:1008d0007e0032000801be000200be00f7ff3700b4
:1008e0006120e100790032006000b800f3ff3700ba
:1008f0000000200001f82700f0ff3700140020005e
:10090000a9003700f4ff2f00a70037000001be0048
:10091000440007000470a70003f0a10003f8a3003f
:1009200013003a006509b1001000320009003500db
:100930006928e100020035000100280000000500e0
:1009400000004000818048008502e900fcff3a0079
:1009500000000600f88f4200050035008100d1003c
:100960000080d3008502e800fcff3a00000006008a
:100970008000eb00000005004f89de008201780056
:10098000a40037006011b800b200370081002000d9
:10099000618055000b003d000b00200061fe2f0020
:1009a0000100e1001d0034008281710061016400da
:1009b0008904d1000884d3000000e800faff3a005f
:1009c00071002000610064000300700002006000fc
:1009d0000900320061044400e0844c000988a5004d
:1009e000050032008b05e8006808e10002003a00cb
:1009f0008904d1000884d300f20f20000258e100de
:100a000005003d00c75ddd00f907b2008980750073
:100a100008007800000006000bf827008b00780023
:100a200000000500c70ade00f107b200f50fb200b2
:100a300008003200e1cf4200020032000170a00045
:100a400024000500810f7000010032000408050039
:100a500044000500810f700002003a0014000500f8
:100a60008502e9000000400081c04800fcff3b0017
:100a70000170a000240005000004be00e9ff07008b
:100a80000003be000405be000200be00e5ff070033
:100a9000844f7500000006000200be006450e100b3
:100aa000050036006420e100020036000968a3005a
:100ab00001003a000800be000160a0004f06780067
:100ac0004f05be004f04be0000000600f0ff2f00df
:100ad000f1ff2700f9ff3700889fbe008a9fbe0004
:100ae0008c1f7800e4ff0700ebff330003866c00e7
:100af0006450e100240032006420e100270032004d
:100b00006150e100220032006120e100210032004a
:100b10008b854200eb07b1000134b800003ab80001
:100b20000804420089844a00013ab8000030b80045
:100b30008880400009014a000400330000004000a2
:100b400081804800020149008b05e900c909dd00e8
:100b5000830170000100320013002000c814de0081
:100b60004814dd004709de001200b200c808de00ac
:100b70000884700085ff070001f0a1000cf0a700b9
:100b800001f0a000cdff37006120e100cfff32006f
:100b90000801be000200be00f7ff37006150e1000f
:100ba000fcff3a00c9ff3700889fbe008a9fbe0045
:100bb000841f7800b0ff07004f0078001100330059
:100bc000f0ff2f00838f6c0006003b0004056500da
:100bd0000a00a7000800370009f0a6001000200056
:100be00008003700820f5400838f5c000300390037
:100bf0001000200001003e000000200009f0a700c6
:100c00000000ea004f05be004f04be000000e000f7
:100c100000000600881f7800030478000300e0004d
:100c200007003d0060001000e0801800600119001e
:100c3000e081190002003b0001f02d0003003700a5
:100c40000400070008f0a70001f0a0004f0478009e
:100c500000000600889fbe008a9fbe0000827000d0
:100c60000402710004827100260032000004be00fc
:100c70000200be006011b8006b0920009502200040
:100c80000182cf000a0039000541b1000082cf0087
:100c9000070039000541b1000982cf000400390086
:100ca0000541b1000882cf00010039000541b100c3
:100cb00005425200120032000a003b00828171009e
:100cc000610164008100d1000080d3008984d300d9
:100cd0000884d3008b05e8000442e800f7ff3a00df
:100ce000070037000804440089844c0000004800d5
:100cf000818048008b05e9000442e900f9ff3a00d1
:100d000022ff07004f05be004f04be000000060092
:020000040000fa
:100d1000666600000641000000000000e0400000a0
:100d200000000000d040000000000000c0400000b3
:100d3000000000000000000000000000c8420000a9
:100d400000000000a0410000000000002041000061
:100d50000000000000000000000000000000000093
:0c0d6000e7e70000e7e70000e700000004
:020000040000fa
:100d6c000000fa000041eb0011c0b30030c0b3002a
:100d7c00330507000041eb0021c0b30030c0b300c5
:100d8c002f0507000080fa00000006000000fa00a2
:100d9c0012c0b30021c0b30030c0b3002805070057
:100dac0012c0b30011c0b30030c0b300240507005b
:100dbc000080fa00000006000400fa0020479800aa
:100dcc000040eb00004f78002e4090000004e00043
:100ddc00150032002e409000e54f500012003e00ee
:100dec000040eb00104798000b0037001e409000ad
:100dfc000080fb00110020000008dd00804078001e
:100e0c001e40780000c07000004f78001e4090001b
:100e1c000040e800104798009e4090002e40900043
:100e2c0080cf5000f1ff39001e41780021c0b30083
:100e3c0030c0b300020507000080fa000000060075
:100e4c000400fa00204798000040eb00004f7800a7
:100e5c002e4090000004e000150032002e4090005f
:100e6c00e54f500012003e000040eb001047980088
:100e7c000b0037001e4090000080fb00110020008a
:100e8c000008dd00804078001e40780000c0700033
:100e9c00004f78001e4090000040e800104798007a
:100eac009e4090002e40900080cf5000f1ff390002
:100ebc001e41780011c0b30030c0b300e00407003d
:100ecc000080fa00000006000200fa00004f7800d3
:100edc001e407800e24f5000080036001e4078009b
:100eec00e54f500005003e001ec0e90000417800af
:100efc0031c0b30030c0b300d10407000080fa0049
:100f0c00000006000200fa00004f7800114798001c
:100f1c001e407800ef4f50000c003e001e40900029
:100f2c00ef4f500009003e001e80fb004400dd0026
:100f3c00804078001e40900000c070000041780096
:100f4c0041c0b30030c0b300bd0407000080fa00fc
:100f5c00000006000200fa00004f78001e407800e6
:100f6c000004e000040035001e41780051c0b300bd
:100f7c0030c0b300b20407000080fa000000060085
:100f8c000400fa00004f780011479800224798009f
:100f9c001e4078000004e000030032001e40780080
:100fac00e14f500017003a001e409000e34f5000f4
:100fbc0014003e002e4090000004e00003003200bc
:100fcc002e409000e14f50000e003a001e80fb00b6
:100fdc004300dd00804078001e4090000080fb0044
:100fec00000040000040780080c070002e4090004f
:100ffc0000c070000041780061c0b30030c0b30085
:10100c008f0407000080fa00000006000000fa00c0
:10101c000041eb008040eb00a0c0b3008804070047
:10102c000080fa00000006000000fa000041eb000e
:10103c00d1c1b30030c0b300810407000080fa00b6
:10104c00000006000200fa00004f780000c2b30056
:10105c009e40780080cf500004003e001e41780076
:10106c0011c1b30030c0b300750407000080fa0052
:10107c00000006000200fa00000f780001c1b30066
:10108c001e007800d40407000080fa00000006005f
:10109c000200fa00000f7800a1c0b3001e00780017
:1010ac00cd0407000080fa00000006000400fa00de
:1010bc00004f7800110798001e4078000004e000f3
:1010cc00080032001e407800e54f500005003e003d
:1010dc009e4078006ac04000804078001e0090005e
:1010ec00bd0407000080fa00000006000200fa00b0
:1010fc00000f78001e007800deff07001e0078004d
:10110c00e3ff07000080fa00000006000000fa0070
:10111c00a2c0b3008040eb0030c0b300480407000d
:10112c00e05a210001002000980907000080fa0015
:10113c00000006000600fa008001eb0012002000ff
:10114c00a1c0b30010c4b300100107002028ef00a9
:10115c002228ef000040eb00004f7800050037001c
:10116c001e80fb00018320000041eb0082707800a0
:10117c001e4fe8001e407800ff4f5000f8ff36006d
:10118c001c68ef00e1004700026b28000400090016
:10119c00b25878002028ef001e28ef00f0fe070060
:1011ac0010c0b30004ff070031c0b3000040eb00d7
:1011bc0054ff07000040eb0021ff070050c0b300b4
:1011cc0041ff070010c0b30062ff070010c0b3005e
:1011dc009cff070012c0b30031c0b30010c0b300b5
:1011ec0067ff07000e00e800c0ff0700240007009f
:1011fc002a000700c5ff070010002000f0408800ff
:10120c000080fa00000006000000fa000001eb006c
:10121c0071c0b30010c4b300960107001000200089
:10122c00f04088000080fa00000006000000fa0080
:10123c000041eb008040eb000040eb000004070095
:10124c000080fa00000006000000fa000041eb00ec
:10125c0081c0b30010c0b300f90307000080fa008e
:10126c00000006000000fa000041eb0071c1b30061
:10127c0010c0b300f20307000080fa000000060063
:10128c000000fa000041eb008040eb0070c0b3009e
:10129c00eb0307000080fa00000006000000fa00d3
:1012ac000041eb008040eb0080c0b300e40307007a
:1012bc000080fa00000006000200fa00004f7800df
:1012cc001e4178008040eb0060c0b300dc030700d7
:1012dc000080fa00000006000200fa000041eb005a
:1012ec008040eb0010c0b300d5030700004f78001e
:1012fc001e04a1001e4178008040eb0030c0b300fa
:10130c00cf0307001200200071c0b30010c4b3005b
:10131c00580107000080fa00000006000200fa00e5
:10132c00004f7800f0408000e10f500007003a00b9
:10133c00d3ff07001e407800dfff0700e6ff070021
:10134c0020002000f04088000a003700f0408000a8
:10135c00e30f500007003a00abff0700c8ff07007f
:10136c001e407800d4ff0700dbff070020002000a0
:10137c00f04088000080fa00000006000200fa002d
:10138c000041eb008040eb0010c0b300ac03070041
:10139c00004f78001e04a0001e4178008040eb0036
:1013ac0030c0b300a60307001200200071c0b300c8
:1013bc0010c4b3002f0107000080fa0000000600e3
:1013cc000000fa00f0408000e10f500003003a00ea
:1013dc00eaff070030002000f04088000080fa008f
:1013ec00000006000200fa00881f78000041eb00a4
:1013fc0071c1b30010c0b300910307000080fb0063
:10140c0061006000000f7800130037001cc8bf009b
:10141c000084fb008040eb0010c6b300640307009f
:10142c000183200080707c000041eb0071c1b3008f
:10143c0010c0b300820307000080fb006100600055
:10144c00000f78001cc8bf000040e8001ce8b70083
:10145c0010002000104188001e0078000000e00001
:10146c0003003a001cc8bf00ff4f5000e7ff3600d6
:10147c004f0478000080fa00000006000200fa0019
:10148c0000418000e10f50001f003a002028ef00bf
:10149c00f0408000e20f50000c003a005aff0700a9
:1014ac000041eb008040eb000040eb0064030700c0
:1014bc00004f78001e44a0001e41780071c0b3009c
:1014cc0030c0b3005e0307000f003700f04080000f
:1014dc00e30f50000c003a004bff0700c1ff070060
:1014ec000041eb008040eb000040eb005403070090
:1014fc00004f78001e64a0001e41780071c0b3003c
:10150c0030c0b3004e0307000080fa000000060054
:10151c000000fa00aaff070010418000e10f500004
:10152c0013003a001cc8bf000080fb000000e9005b
:10153c0001832000e140780030c5b30080cf50001b
:10154c0009003a00a1c0b30010c4b3002001070089
:10155c000080fb000080ea0000017800a1c0b3000d
:10156c0010c4b300c30007001c68ef002228ef0072
:10157c000080fa00000006000000fa0030c5b3003d
:10158c0066ff07000080fa00000006000600fa0063
:10159c00004f780011479800120798002307980015
:1015ac001e80fb0021042000810f50003f00320000
:1015bc0031042000810f5000720032001104200011
:1015cc00810f5000a8003a001e4090000080fb00e4
:1015dc00ea0f500033003e00110020000008dd002f
:1015ec00c1792000810060000100e0001f003a007a
:1015fc00630060000000e00001003a0029003700a1
:10160c001e4090000080fb00110020000008dd004f
:10161c008080ea0060198000808060001e4090008d
:10162c000080fb001e0190000010dd000100700026
:10163c00601988001e4090000080fb001100200003
:10164c000008dd008080ea000016800080806000c9
:10165c001e4090000080fb002e0190000010dd0069
:10166c0001007000001688000f0037001e4090002b
:10167c000080fb00110020000008dd008080ea00e3
:10168c0000168000808060001e4090000080fb00ef
:10169c002e0190000010dd00010070000016880083
:1016ac000100370000000000700037001e40900061
:1016bc000080fb000000e00030003500e30f50001c
:1016cc0003003400ef0f50002c003c001d003700cd
:1016dc001e4090000080fb000080e80011002000fc
:1016ec000008dd008080ea006019800080806000c6
:1016fc001e4090000080fb000080e8001e0190005e
:10170c000010dd0001007000601988001e40900080
:10171c000080fb00110020000008dd008080ea0042
:10172c0040168000808060001e4090000080fb000e
:10173c002e0190000010dd000100700040168800a2
:10174c000f0037001e4090000080fb0011002000ad
:10175c000008dd008080ea00401680008080600078
:10176c001e4090000080fb002e0190000010dd0058
:10177c0001007000401688000100370000000000d6
:10178c003a0037001e4090000080fb000000e00093
:10179c0030003500e20f500003003400e90f500018
:1017ac002e003c001d0037001e4090000080fb0006
:1017bc0066004000110020000008dd008080ea0077
:1017cc0060198000808060001e4090000080fb004b
:1017dc00660040001e0190000010dd00010070004a
:1017ec00601988001e4090000080fb001100200052
:1017fc000008dd008080ea00801680008080600098
:10180c001e4090000080fb002e0190000010dd00b7
:10181c000100700080168800110037001e409000f7
:10182c000080fb00110020000008dd008080ea0031
:10183c0080168000808060001e4090000080fb00bd
:10184c002e0190000010dd00010070008016880051
:10185c00030037000000000001003700000000000a
:10186c000000000001003700000000000080fa00ba
:10187c00000006000400fa00004f780011479800a1
:10188c00120798001e80fb0021042000810f5000dd
:10189c002100320031042000810f5000330032004f
:1018ac0011042000810f500046003a001e409000a9
:1018bc000080fb00ea0f500015003e0011002000d4
:1018cc008008dd00f0792000008060000000e0005e
:1018dc0001003a000e0037001e4090000080fb0013
:1018ec00110020000008dd008080ea002016800036
:1018fc00808060001e4090000080fb001e01900064
:10190c000010dd0001007000201688000100370077
:10191c00000000002c0037001e4090000080fb00ef
:10192c0060004000ef0f50000e003e001e40900083
:10193c000080fb00110020000008dd008080ea0020
:10194c0060168000808060001e4090000080fb00cc
:10195c001e0190000010dd00010070006016880070
:10196c000100370000000000170037001e409000f7
:10197c000080fb0060004000e90f50000e003e00ac
:10198c001e4090000080fb00110020000008dd00cc
:10199c008080ea00a0168000808060001e409000cd
:1019ac000080fb001e0190000010dd0001007000a3
:1019bc00a0168800010037000000000000000000a5
:1019cc0001003700000000000080fa000000060053
:1019dc000200fa00004f7800114798001e80fb00af
:1019ec0021042000810f5000170032003104200028
:1019fc00810f50002000320011042000810f500094
:101a0c0029003a001e4090000080fb00ea0f5000b5
:101a1c0027003e00110020008008dd00f079200036
:101a2c00008060000000e0002300320011168000ee
:101a3c001e4090000080fb000008de000040780093
:101a4c0061406000220037001e4090000080fb00c7
:101a5c0060004000ef0f500019003e00511680004e
:101a6c001e4090000080fb000008de000040780063
:101a7c0061406000160037001e4090000080fb00a3
:101a8c0060004000e90f50000f003e0091168000ee
:101a9c001e4090000080fb000008de000040780033
:101aac00614060000a0037000000000007003700aa
:101abc0000000000050037000000000003003700a4
:101acc0000000000010037000000000000c0eb0027
:101adc000080fa00000006000400fa00004f7800b5
:101aec00110798001e80fb0021042000810f50007c
:101afc000900320031042000810f5000090032002f
:101b0c0011042000810f50000a003a009e00900042
:101b1c0021168800080037009e009000611688008e
:101b2c00050037009e009000a11688000000000000
:101b3c0001003700000000000080fa0000000600e1
:101b4c000200fa00004f78001e80fb0021042000e8
:101b5c00810f50000800320031042000810f50002a
:101b6c000700320011042000810f500006003a00db
:101b7c001016800005003700501680000300370057
:101b8c0090168000010037000000eb000080fa0086
:101b9c00000006000000fa0041168000f03f28000b
:101bac00008060004016880051168000f03f28002d
:101bbc000080600050168800010e8000f0f02f00ad
:101bcc00008060000040a000000e8800000e800025
:101bdc00c000b300000e8800010e8000c0ff2f0073
:101bec0000806000000e8800c221ef00c941a900ee
:101bfc00c921a900c901a800c8c1a800c8a1a80092
:101c0c00c881a800c801a900e134800000fe2f00a3
:101c1c0000806000f000b300e0348800c841a800e8
:101c2c00c1e1a80040012000190007000080fa0063
:101c3c00000006000000fa00d0c2a900d0e2a90002
:101c4c00d2c2a900d2e2a900012e8000f0f02f0030
:101c5c00008060000040a000002e8800002e800054
:101c6c00c000b300002e8800012e8000c0ff2f00a2
:101c7c0000806000002e8800c225ef00c905a90075
:101c8c00c805a800c1e5a8000080fa000000060005
:101c9c000400fa00100798009e00900090032000aa
:101cac000088b90000007800000fe9001e007800e1
:101cbc000000e000020035009e007800210e880034
:101ccc000080fa00000006000400fa0010079800db
:101cdc009e009000900320000088b900000078005e
:101cec00000fe9001e0078000000e0000200350043
:101cfc009e007800212e88000080fa00000006006b
:101d0c000800fa00881f7800100798002107980037
:101d1c0062479800200e80008000e80090032000ad
:101d2c0000017800110009008280d800000f7800b3
:101d3c006011b8001e009000ae009000ecfa070095
:101d4c000000e0000f003a006e4090000080fb00a5
:101d5c00e20f500006003200e30f50000600320084
:101d6c00e10f50005a003a00d621ef005b0037001b
:101d7c00d821ef0059003700da21ef0000000000f5
:101d8c005600370018c0b30002002000832c24003a
:101d9c001e009000ae009000d5fa07000000e00095
:101dac00010034000044eb000804e0004b0032005a
:101dbc006e4090000080fb00e20f500019003200d2
:101dcc00e30f50002c003200e10f500042003a00ab
:101ddc001e0078008000eb00e7fa070002002000ec
:101dec004326240039fb070002002000832c24002a
:101dfc007dfa07000001be001efa07001e019000cc
:101e0c00ae01900031fb07000200200003f8230014
:101e1c0017fa0700bafa070000007800b00e880025
:101e2c002e0037001e0078008000eb00d2fa07006d
:101e3c00020020004326240024fb0700020020009f
:101e4c00832c240068fa07000001be0009fa070081
:101e5c001e019000ae0190001cfb07000200200048
:101e6c0003f8230002fa0700a5fa07000000780027
:101e7c00c00e8800190037001e0078008000eb00af
:101e8c00bdfa070002002000432624000ffb0700c8
:101e9c0002002000832c240053fa07000001be002e
:101eac00f4f907001e019000ae01900007fb07003b
:101ebc000200200003f82300edf9070090fa070058
:101ecc0000007800d00e88000000000003003700ee
:101edc000000000001003700000000004f047800f3
:101eec000080fa00000006000600fa00881f780047
:101efc001007980021079800200e80008000e80051
:101f0c009003200000017800110009008280d800a5
:101f1c00000f78006011b8001e009000ae00900019
:101f2c0073fa07000000e00002003a00d625ef002b
:101f3c001f00370018c0b30002002000832c2400bf
:101f4c001e009000ae00900069fa07000000e0004f
:101f5c00010034000044eb000804e00014003200df
:101f6c001e0078008000eb0083fa070002002000be
:101f7c0043262400d5fa070002002000832c2400fd
:101f8c0019fa07000001be00baf907001e01900003
:101f9c00ae019000cdfa07000200200003f82300e8
:101fac00b3f9070056fa070000007800b02e88003d
:101fbc004f0478000080fa00000006000600fa00ca
:101fcc00000f780012079800230798001e00780075
:101fdc002fff070012c0b3001e009000ae0090004f
:101fec0047ff070022c0b3001e009000ae00900017
:101ffc0043ff070032c0b3001e009000ae009000fb
:10200c003fff07000080fa00000006000600fa00ff
:10201c00000f780012079800230798001e00780024
:10202c0029ff07001e009000ae009000aeff0700d5
:10203c000080fa00000006000000fa000012800088
:10204c004600de00614060000080fb000080fa006a
:10205c00000006000000fa00001280000000d10011
:10206c00614060000080fb000080fa000000060068
:10207c000000fa000012800000407800614060000f
:10208c000080fb000080fa00000006000000fa004f
:10209c004022ef0001368000f00f2e00008060001f
:1020ac0000b0a0000036880041358000f00f2e00f3
:1020bc00008060000080a00040358800c822a90084
:1020cc002c63a8004135800000fe2f0000806000ca
:1020dc0040358800c802a8002c43a80011368000a7
:1020ec0000fe2f00008060009000b30010368800c6
:1020fc00c842a9002c83a800cc42a800113680004d
:10210c00f00f2e0080806000007020000100700035
:10211c0010368800c862a9002ca3a800c0e2a90050
:10212c00d0c2a800b0132000101288004422ef0087
:10213c000012800000f0a000001288000080fa005d
:10214c00000006000000fa000012800000f0a10060
:10215c00001288000080fa00000006000200fa005d
:10216c00004f7800bbff07000000e0000c003a00b5
:10217c00ca42a9001e80fb0040128800000000002b
:10218c00b4ff07000000e000fdff3a000000000073
:10219c00b7ff07000000e000fdff3200ca42a800b4
:1021ac0040128000004078000080fa000000060019
:1021bc000400fa002047980031479800a5ff07005b
:1021cc000000e0001a003a00ca42a9002e4090001c
:1021dc000080fb0040128800000000009dff0700fb
:1021ec000000e000fdff3a0000000000a0ff070027
:1021fc000000e000fdff320040128000004f78002c
:10220c003e4090000080fb0040128800000000005f
:10221c0090ff07000000e000fdff3a000000000006
:10222c0093ff07000000e000fdff3200ca42a80047
:10223c0040128000004078000080fa000000060088
:10224c000400fa00004f78001147980022479800cc
:10225c001e80fb00e60f50001c003200e60f500001
:10226c0007003c00e10f500014003200e30f500057
:10227c000d0032000000e0000800320021003700a1
:10228c00e80f500018003200e80f50001300350022
:10229c00ea0f5000170032001a00370000c0eb00a4
:1022ac00aeff0700190037001e4090000054a0003c
:1022bc00ae409000beff0700140037008040eb00da
:1022cc001e409000baff070010003700ae4090008f
:1022dc0000cab300b6ff07000c00370010ceb300e5
:1022ec009eff07000900370020ceb3009bff0700bc
:1022fc000600370031c7b30000c5b300acff0700c0
:10230c000200370000c0eb0094ff07000080fa00c9
:10231c00000006000600fa001007980041479800dc
:10232c004cff07000000e00027003a00ca42a90059
:10233c004e4090000080fb0040128800000000001e
:10234c0044ff07000000e000fdff3a000000000021
:10235c0047ff07000000e000fdff32004012800044
:10236c00804078001e009000014878000040eb008f
:10237c00004f7800100037004822ef0000000000ea
:10238c0034ff07000000e000fdff3a0000000000f1
:10239c0037ff07000000e000fdff32001e80fb004d
:1023ac009e00900000804000411280008140780027
:1023bc00014878001e4fe8001e407800e44f5000a2
:1023cc00edff3600ca42a8004012800000407800a1
:1023dc000080fa00000006000600fa0010079800c2
:1023ec00414798001bff07000000e00025003a0061
:1023fc00ca42a9004e4090000054a0000080fb008f
:10240c00401288000000000012ff07000000e000ee
:10241c00fdff3a000000000015ff07000000e0007f
:10242c00fdff32000040eb00004f78001100370038
:10243c0040128000104798001e80fb009e00900008
:10244c0000804000104078000080fb0040128800a3
:10245c0000000000fffe07000000e000fdff3a0056
:10246c000000000002ff07000000e000fdff32004a
:10247c001e4fe8001e407800e44f5000ecff360081
:10248c00ca42a80040128000004078000080fa0088
:10249c00000006000000fa000621ef0011e1a9007f
:1024ac0011a1a90010c1a90081088000f0fc2f0027
:1024bc00008060000040a000800888001061a90026
:1024cc001021a90031058000f0ff28000080600079
:1024dc0000c0a0003005880084e0a90094e0a800aa
:1024ec000080fa00000006000000fa00800880005e
:1024fc0000f0a000800888000080fa0000000600b0
:10250c000000fa008008800000f0a100800888001c
:10251c000080fa00000006000000fa000621ef001f
:10252c000080fa00000006000200fa00000f78009c
:10253c009e007800310888000080fa000000060038
:10254c000200fa00000f78009e00780061088800f5
:10255c000080fa00000006000000fa00e01c2000d9
:10256c00600888000080fa00000006000200fa00f3
:10257c00004f78001e4078000004e0000d0032008f
:10258c00d0c8b3009e40780080cf500009003e00b8
:10259c001e80fb008000eb00f7f8070062302b0078
:1025ac00d3b0230090f80700d5f80700000078009e
:1025bc00600888000080fa00000006000000fa00a5
:1025cc00300880000080fa00000006000000fa00cd
:1025dc000a21ef0013e1a90013a1a90012c1a9005f
:1025ec009108800000032000010070009008880012
:1025fc001221a9004105800080ff2f00008060009f
:10260c000010a000400588008500a9009500a800d6
:10261c000080fa00000006000000fa00900880001c
:10262c0000f0a000900888000080fa00000006006e
:10263c000000fa009008800000f0a10090088800cb
:10264c000080fa00000006000000fa000a21ef00ea
:10265c000080fa00000006000200fa00000f78006b
:10266c009e007800510888000080fa0000000600e7
:10267c000200fa00000f78009e00780071088800b4
:10268c000080fa00000006000200fa00000f78003b
:10269c001e0078000000e0000d003200701b2100cd
:1026ac009e007800808f500009003e001e007800cc
:1026bc008000eb00b0f80700b28b2b00d3d82300be
:1026cc0049f807008ef807000000780070088800b1
:1026dc000080fa00000006000000fa00500880009c
:1026ec000080fa00000006000200fa00004f78009b
:1026fc001421ef001fe1a9001fa1a9001ec1a90010
:10270c009e40780063c060000080fb0063006000a6
:10271c004400dd00f2088000f1fc2f008100610014
:10272c0001007000f00888001e21a90081058000be
:10273c00f0ff28000080600000e0a0008005880009
:10274c008760a9009760a8000080fa0000000600ce
:10275c000000fa00f008800000f0a000f0088800eb
:10276c000080fa00000006000000fa00f00880006b
:10277c0000f0a100f00888000080fa0000000600bc
:10278c000000fa001421ef000080fa00000006009f
:10279c000200fa00000f78009e007800a108880063
:1027ac000080fa00000006000200fa00000f78001a
:1027bc009e007800d10888000080fa000000060016
:1027cc000000fa00a00880000080fa00000006005b
:1027dc000200fa00004f78001821ef0021e1a90057
:1027ec0021a1a90020c1a9009e40780063c060000f
:1027fc000080fb00630060004400dd0002098000e3
:10280c00f1fc2f00810061000100700000098800bc
:10281c002021a9009105800080ff2f00008060001e
:10282c005000b300900588008780a9009780a8000d
:10283c000080fa00000006000000fa000009800089
:10284c0000f0a000000988000080fa0000000600db
:10285c000000fa000009800000f0a10000098800c7
:10286c000080fa00000006000000fa001821ef00ba
:10287c000080fa00000006000200fa00000f780049
:10288c009e007800c10888000080fa000000060055
:10289c000200fa00000f78009e007800e108880022
:1028ac000080fa00000006000000fa00c00880005a
:1028bc000080fa00000006000c00fa000040eb005b
:1028cc00004f78006000b8001007980021079800ae
:1028dc006000b80030079800410798001302070009
:1028ec00204f98000040eb00104798002300370061
:1028fc001e4090000080fb00110020000008dd004d
:10290c00804078002e48900000c06000304f980046
:10291c003e4890000004e0001500320010c0b300e7
:10292c00004f78001e4090000080fb006a00b90048
:10293c0000007800cf80de000cf807000001be001c
:10294c001e009000ae0090004af707001007980098
:10295c00210798000200200003f823003e0090009d
:10296c00ce00900043f7070030079800410798000d
:10297c001e4090000040e800104798001e40900058
:10298c00e54f5000daff36001e4078000004e000ee
:10299c000e003a0028c8bf00e94f500002003e006c
:1029ac000040eb001200370081822000914078003b
:1029bc0080c2b30080cf50000200360020c3b300a9
:1029cc000b00370028c8bf00090037003e019000fb
:1029dc00ce0190001e009000ae00900082f7070020
:1029ec00c7f707000040780028e8b70028c8bf00e8
:1029fc000080fa00000006000200fa00aeff07009b
:102a0c0021c3b30000cf500011c4b3001ec040005e
:102a1c00104798001e40900094020700a1c0b3001c
:102a2c000040eb00540207000080fa000000060092
:102a3c000400fa00881f7800350007000080fb00b6
:102a4c008000eb00ccf70700008fbe0018c0b3006d
:102a5c0002002000432b24001e00be00a4f7070038
:102a6c000000e000010035000044eb000804e00029
:102a7c0009003200a1c0b30010c4b300d4fb07009e
:102a8c000080fb000080ea0000017800a1c0b300c8
:102a9c0010c4b30077fb07004f0478000080fa00e5
:102aac00000006000000fa00d3ff070050030700e7
:102abc0031418000010040003041880031418000ec
:102acc00007d2000808f5000040034008040eb001b
:102adc000040eb0028020700ffff37000080fa00df
:102aec00000006000000fa00204180000000e00019
:102afc0002003a00c0ff0700030037008040eb00e3
:102b0c000040eb001c0207000080fa0000000600e9
:102b1c001600fa00889fbe000040eb002c02070054
:102b2c00100798001e0090008000eb0092f7070041
:102b3c0012ae270043042400e4f7070002002f0024
:102b4c00f357240028f70700200798003107980056
:102b5c0002002000030824002e009000be0090000c
:102b6c00daf70700400798005107980018c0b30027
:102b7c0062662600631024004e009000de00900078
:102b8c005df707000000e00001003c000044eb0092
:102b9c000804e0000200320040c6b30063003700b6
:102bac0018c0b30002002000030c24004e0090005b
:102bbc00de0090004ef707000000e0000100350039
:102bcc000044eb000804e000020032000040eb007f
:102bdc00560037000040eb00004f78000100370032
:102bec001e4fe8001e80fb00c200dd00806828003c
:102bfc00008040001000be0018c0b3002e019000f1
:102c0c00be0190003cf707000000e00001003c0012
:102c1c000044eb000804e000f1ff3a001e80fb00ca
:102c2c00c200dd0080682800008040001002be0059
:102c3c001e80fb000000e800c200dd008068280058
:102c4c00008040001000be000001be000400be0069
:102c5c0088f607000004be001e80fb0065004000e3
:102c6c00c200dd0080682800008040001002be0019
:102c7c001e80fb000000e80065004000c200dd0083
:102c8c0080682800008040001000be000001be00db
:102c9c000400be0077f607000001be000800be006d
:102cac00d1f6070060079800710798001e80fb00a2
:102cbc00c200dd0080682800008040001000be00cb
:102ccc002e019000be01900069f60700000f9800dd
:102cdc00110f98006e019000fe0190000e089000fc
:102cec009e08900079f7070005f7070040579800f9
:102cfc001e80fb0065004000c200dd0080682800db
:102d0c00008040001004be004e5090000080fb007c
:102d1c00cf80de0015f707000001be000800be00e2
:102d2c0053f60700f6f60700004078004f04be008b
:102d3c000080fa00000006000000fa0006fe070002
:102d4c004006200050fe07001428ef001628ef0064
:102d5c001828ef001a28ef001028ef001228ef00b7
:102d6c000c28ef000e28ef00dffd07002afe0700fd
:102d7c00010037000000000080408000e10f50008f
:102d8c0010003a001028ef0060408000e50f500062
:102d9c0003003a0010002000a04088000800370013
:102dac0060408000e90f5000050036000c28ef0051
:102dbc0010002000a040880010002000b0408800c7
:102dcc0001020700a0408000e10f500002003a0011
:102ddc001428ef0003020700b0408000e10f500000
:102dec0002003a001628ef00020207009040800013
:102dfc00e10f500010003a001228ef0070408000e4
:102e0c00e50f500003003a0010002000c04088007d
:102e1c000800370070408000e90f500005003600b4
:102e2c000e28ef0010002000c04088001000200089
:102e3c00d0408800f3010700c0408000e10f500033
:102e4c0002003a001828ef00f2010700d040800081
:102e5c00e10f5000c7ff3a001a28ef00f1010700fc
:102e6c00c5ff37000000fa00601980000040a00088
:102e7c0060198800c842a900c0e2a900d0c2a9000c
:102e8c000080fa00000006000000fa0060168000c6
:102e9c004200de006140600000c0ea00614060005a
:102eac000080fb00610060004200dd0051168000d4
:102ebc000120a10001007000501688000080fa006b
:102ecc00000006000000fa00201680004700de001b
:102edc006140600000c0ea00614060000080fb00bf
:102eec00610060004700dd00111680000170a10038
:102efc0001007000101688000080fa000000060027
:102f0c000000fa00a01680004600de006140600060
:102f1c0000c0ea00614060000080fb0061006000be
:102f2c004600dd00911680000160a10001007000d8
:102f3c00901688000080fa00000006000000fa00dd
:102f4c002ec8bf000080fb00e40f500016003200ba
:102f5c00e40f500007003c00e10f5000100032005d
:102f6c00e10f500014003c000000e00008003200ab
:102f7c0016003700e60f500011003200e60f50002b
:102f8c0011003500e70f5000090032000f00370028
:102f9c008040eb000040eb00f7000700ffff37001c
:102fac0027000700090037000a0007000700370058
:102fbc002e68ef000500370000000000030037000a
:102fcc000000000001003700000000000080fa0043
:102fdc00000006000000fa0050c0b30065000700b6
:102fec003040880030408000e10f5000010032007a
:102ffc0081fe07003140800040408000808f5000ef
:10300c000800320030408000e10f500003003a000d
:10301c000ac8bf000040e8000ae8b7003040800052
:10302c00404088000ac8bf00e54f5000020036003f
:10303c000a68ef002e68ef000080fa00000006001e
:10304c000000fa0020c0b3004a00070000408800ce
:10305c0069fe07000140800010408000808f500006
:10306c0008003200004080000000e00003003a003d
:10307c0004c8bf000040e80004e8b700004080002e
:10308c00104088000040eb003a0007000000e00010
:10309c000600320050c0b300360007000000e0000c
:1030ac000200320040c0b3002ee8b7000080fa00e6
:1030bc00000006000400fa00100798000040eb0026
:1030cc00004f7800060037009e019000120020008f
:1030dc009e40780030c4b3002cf907001e4fe80066
:1030ec001e407800e54f5000f7ff36000080fa00d4
:1030fc00000006000200fa000040eb00004f7800d0
:10310c0005003700120020009e40780030c4b30048
:10311c00d8f907001e4fe8001e407800e54f50001c
:10312c00f8ff36000080fa00000006000000fa00ec
:10313c000000eb00dfff0700eeff0700500220004d
:10314c00010020009101070010002000d9ff0700aa
:10315c00d0392000010020008c01070030c4b300de
:10316c0077fa070000407800f043b2000080fa00c4
:10317c00000006000400fa0020479800ebff07004f
:10318c00004f78002e409000e54f50000a003e00a2
:10319c009e80fb002e4090000080fb000088de002b
:1031ac0061006000004078000004e0000200320082
:1031bc0010002000010037000000eb000080fa0036
:1031cc00000006000000fa0081e0a80070c0b30007
:1031dc000600070060c0b3001400070050c0b30025
:1031ec00250007000080fa00000006000200fa002b
:1031fc00004f78009e40780067c060000080fb00a4
:10320c00670060002205800081ff2f0081006100b3
:10321c0001007000200588008400a9009400a8001b
:10322c008200a8000080fa00000006000200fa00ec
:10323c00004f78000134800000f021000100700084
:10324c00003488009e40780067c060000080fb005e
:10325c00670060007205800081ff2f008100610013
:10326c0001007000700588008680a9009680a80077
:10327c000080fa00000006000200fa00004f7800ff
:10328c001134800000fe2f00008060006001b3004c
:10329c00103488009e40780067c060000080fb00fe
:1032ac00670060004400dd0092058000f1f82f00fb
:1032bc0081006100010070009005880087a0a900c2
:1032cc0097a0a8008240a8000080fa000000060029
:1032dc000000fa008001eb001200200091c0b30046
:1032ec0010c4b300a9f807002afa07000080fa00fe
:1032fc00000006000200fa00004f78001e80fb0060
:10330c000000e00003003200e10f50000600320024
:10331c000a0037000001eb0091c0b30010c4b300e9
:10332c0054f90700050037001200200091c0b300cb
:10333c0010c4b3004ff90700000000000080fa0031
:10334c00000006000200fa00004f780040c6b300ef
:10335c009e40780080cf500005003e001e80fb0090
:10336c008000eb0084f5070022c0b30064fa07006c
:10337c000080fa00000006000200fa00004f7800fe
:10338c00114798001e407800daff07001e4090009d
:10339c00ecff07000080fa00000006000000fa00b5
:1033ac00c002a800c022a8002c03a9002c23a9004d
:1033bc002023ef002223ef002143a80000f021007e
:1033cc002019880021e3a8000080fa000000060004
:1033dc000200fa00004f780040198000004078008d
:1033ec007f4060008080fb001e80fb00808f5000bf
:1033fc00090032009e4078007fc060000080fb0016
:10340c007f0060004219800001fe2f0081006100e6
:10341c0001007000401988002023a800900b2000a8
:10342c0001002000d90007002023a90000000000a3
:10343c0000198000610060000000e000fcff320019
:10344c00001880000080fa00000006000000fa005e
:10345c00d0f9070012c0b3000000200001102400b6
:10346c0027fa07000080fa00000006000600fa00a8
:10347c0040479800ce409000b0c3b30080cf5000be
:10348c0002003e00c0c3b30040479800ce409000fd
:10349c0080c7b30080cf50000200360080c7b30055
:1034ac00404798004e4090000080fb006700b90038
:1034bc00000078006004b100cf80de002bf507001f
:1034cc000200200003322400c7f407000200200091
:1034dc000308240067f40700008fbe0012c0b3007d
:1034ec001e00be0006fa07000080fa00000006006d
:1034fc000000fa00e1f707000080fa000000060067
:10350c000200fa00004f78001e40780083f7070095
:10351c000080fa00000006000000fa00a8f707007f
:10352c000080fa00000006000200fa00004f78004c
:10353c0091c1b3000040eb008fff07000080fa0040
:10354c00000006000200fa0010418000e10f50005c
:10355c000e003a002228ef000040eb00004f7800ec
:10356c00050037001e80fb000183200061407800bd
:10357c00edff07001e4fe8001cc8bf009e407800fe
:10358c0080cf5000f7ff39001c68ef000080fa0074
:10359c00000006000000fa008a0007008001eb0022
:1035ac0012002000a1c0b30010c4b300f7f707004d
:1035bc0047ff0700a5ff0700def607005d000700c8
:1035cc000080fa00000006000000fa005c00070012
:1035dc00d1ff0700c6ff0700daff07000080fa00e2
:1035ec00000006000000fa00580007000080fa00f6
:1035fc00000006000000fa00570007000080fa00e7
:10360c00000006000000fa00560007000080fa00d7
:10361c00000006000000fa00560007000080fa00c7
:10362c00000006000000fa000080fa00000006000e
:10363c000000fa00d122a800c9e2a800e134800001
:10364c0000fe2f0000806000f000b300e034880022
:10365c00e1348000f00f2e0080806000009021008b
:10366c0001007000e0348800010f800070fe2f0014
:10367c00008060000040a000000f8800010f800057
:10368c000070200001007000000f880000d027009f
:10369c00200f88000080fa00000006000000fa00ed
:1036ac00200f80000080fa00000006000000fa00e5
:1036bc0000d02700200f88000080fa0000000600d0
:020000040000fa
:1036cc002a08000002000000000000002c08000086
:1036dc0002000000000000000c08000008000000c0
:1036ec0000000000140800000800000000000000aa
:1036fc002408000006000000000000003008000054
:10370c0020000000000000001c0800000800000061
:10371c00000000002e080000020000000200000063
:10372c0001000000000800000c0000000000000078
:04373c000000000089
:020000040000fa
:103740000000fa000080fa00000006000000fa0005
:103750000080fa00000006000000fa000080fa0075
:10376000000006000000fa000080fa0000000600d9
:103770000000fa00f4fd07000080fa0000000600d7
:103780000000fa000080fa00000006000000fa00c5
:083790000080fa0000000600b1
:020000040000fa
:10379800f03fb1000180b10006003500ee030900da
:1037a80000000000403fb1000180b100fbff3d0078
:1037b8001000b000203fb000020035000080090072
:0837c8000000000000000600f3
:020000040000fa
:1037d0000000fa0012000700f3fe0700f0f80700ef
:1037e0007bfe07002cfa070094ff07002cfb070064
:1037f00079fb07000080fa00000006000200fa00d2
:10380000a9ff070001d0270000805000000f7800ba
:10381000a9ff07001e0078000080fa0000000600e3
:103820000000fa00413a800000fc2f000080600098
:103830000000a000403a88000080fa000000060066
:103840000000fa0056ff07003efd0700ffff3700ab
:020000040000fa
:0200000401f009
:04000c008000000070
:020000040000fa
:0200000401f009
:04001c00feff0000e3
:00000001FF
