:020000040000fa
:080000000002040000000000f2
:020000040000fa
:0400080034030000bd
:020000040000fa
:04000c0034030000b9
:020000040000fa
:0400100034030000b5
:020000040000fa
:0400140034030000b1
:020000040000fa
:0400180034030000ad
:020000040000fa
:04001c0034030000a9
:020000040000fa
:0400200034030000a5
:020000040000fa
:0400240034030000a1
:020000040000fa
:04002800c80200000a
:020000040000fa
:04002c003403000099
:020000040000fa
:040030003403000095
:020000040000fa
:040034003403000091
:020000040000fa
:04003800340300008d
:020000040000fa
:04003c003403000089
:020000040000fa
:040040003403000085
:020000040000fa
:04004400f8020000be
:020000040000fa
:040048000e030000a3
:020000040000fa
:04004c003403000079
:020000040000fa
:040050003403000075
:020000040000fa
:040054003403000071
:020000040000fa
:04005800340300006d
:020000040000fa
:04005c003403000069
:020000040000fa
:040060003403000065
:020000040000fa
:040064003403000061
:020000040000fa
:04006800340300005d
:020000040000fa
:04006c003403000059
:020000040000fa
:040070003403000055
:020000040000fa
:040074003403000051
:020000040000fa
:04007800e80200009a
:020000040000fa
:04007c003403000049
:020000040000fa
:040080003403000045
:020000040000fa
:040084003403000041
:020000040000fa
:04008800340300003d
:020000040000fa
:04008c003403000039
:020000040000fa
:040090003403000035
:020000040000fa
:040094002403000041
:020000040000fa
:040098002c03000035
:020000040000fa
:04009c00f00200006e
:020000040000fa
:0400a0003403000025
:020000040000fa
:0400a4003403000021
:020000040000fa
:0400a800340300001d
:020000040000fa
:0400ac003403000019
:020000040000fa
:0400b0003403000015
:020000040000fa
:0400b4003403000011
:020000040000fa
:0400b800340300000d
:020000040000fa
:0400bc003403000009
:020000040000fa
:0400c0003403000005
:020000040000fa
:0400c4003403000001
:020000040000fa
:0400c80034030000fd
:020000040000fa
:0400cc0034030000f9
:020000040000fa
:0400d00034030000f5
:020000040000fa
:0400d40034030000f1
:020000040000fa
:0400d80034030000ed
:020000040000fa
:0400dc0034030000e9
:020000040000fa
:0400e00034030000e5
:020000040000fa
:0400e40034030000e1
:020000040000fa
:0400e80034030000dd
:020000040000fa
:0400ec0034030000d9
:020000040000fa
:0400f00034030000d5
:020000040000fa
:0400f40034030000d1
:020000040000fa
:0400f80034030000cd
:020000040000fa
:0400fc0034030000c9
:020000040000fa
:0401000034030000c4
:020000040000fa
:0401040034030000c0
:020000040000fa
:0401080034030000bc
:020000040000fa
:04010c0034030000b8
:020000040000fa
:0401100034030000b4
:020000040000fa
:0401140034030000b0
:020000040000fa
:0401180034030000ac
:020000040000fa
:04011c0034030000a8
:020000040000fa
:0401200034030000a4
:020000040000fa
:0401240034030000a0
:020000040000fa
:04012800340300009c
:020000040000fa
:04012c003403000098
:020000040000fa
:040130003403000094
:020000040000fa
:040134003403000090
:020000040000fa
:04013800340300008c
:020000040000fa
:04013c003403000088
:020000040000fa
:040140003403000084
:020000040000fa
:040144003403000080
:020000040000fa
:04014800340300007c
:020000040000fa
:04014c003403000078
:020000040000fa
:040150003403000074
:020000040000fa
:040154003403000070
:020000040000fa
:04015800340300006c
:020000040000fa
:04015c003403000068
:020000040000fa
:040160003403000064
:020000040000fa
:040164003403000060
:020000040000fa
:0402080034030000bb
:020000040000fa
:04020c0034030000b7
:020000040000fa
:0402100034030000b3
:020000040000fa
:0402140034030000af
:020000040000fa
:0402180034030000ab
:020000040000fa
:04021c0034030000a7
:020000040000fa
:0402200034030000a3
:020000040000fa
:04022400340300009f
:020000040000fa
:04022800340300009b
:020000040000fa
:04022c003403000097
:020000040000fa
:040230003403000093
:020000040000fa
:04023400340300008f
:020000040000fa
:04023800340300008b
:020000040000fa
:04023c003403000087
:020000040000fa
:040240003403000083
:020000040000fa
:04024400340300007f
:020000040000fa
:04024800340300007b
:020000040000fa
:04024c003403000077
:020000040000fa
:040250003403000073
:020000040000fa
:04025400340300006f
:020000040000fa
:04025800340300006b
:020000040000fa
:04025c003403000067
:020000040000fa
:040260003403000063
:020000040000fa
:04026400340300005f
:020000040000fa
:04026800340300005b
:020000040000fa
:04026c003403000057
:020000040000fa
:040270003403000053
:020000040000fa
:04027400340300004f
:020000040000fa
:04027800340300004b
:020000040000fa
:04027c003403000047
:020000040000fa
:040280003403000043
:020000040000fa
:04028400340300003f
:020000040000fa
:04028800340300003b
:020000040000fa
:04028c003403000037
:020000040000fa
:040290003403000033
:020000040000fa
:04029400340300002f
:020000040000fa
:04029800340300002b
:020000040000fa
:04029c003403000027
:020000040000fa
:0402a0003403000023
:020000040000fa
:0402a400340300001f
:020000040000fa
:0402a800340300001b
:020000040000fa
:0402ac003403000017
:020000040000fa
:0402b0003403000013
:020000040000fa
:0402b400340300000f
:020000040000fa
:0402b800340300000b
:020000040000fa
:0402bc003403000007
:020000040000fa
:0402c0003403000003
:020000040000fa
:0402c40034030000ff
:020000040000fa
:0402c80034030000fb
:020000040000fa
:0402cc0034030000f7
:020000040000fa
:0402d00034030000f3
:020000040000fa
:0402d40034030000ef
:020000040000fa
:0402d80034030000eb
:020000040000fa
:0402dc0034030000e7
:020000040000fa
:0402e00034030000e3
:020000040000fa
:0402e40034030000df
:020000040000fa
:0402e80034030000db
:020000040000fa
:0402ec0034030000d7
:020000040000fa
:0402f00034030000d3
:020000040000fa
:0402f40034030000cf
:020000040000fa
:0402f80034030000cb
:020000040000fa
:0402fc0034030000c7
:020000040000fa
:0403000034030000c2
:020000040000fa
:0403040034030000be
:020000040000fa
:0403080034030000ba
:020000040000fa
:04030c0034030000b6
:020000040000fa
:0403100034030000b2
:020000040000fa
:0403140034030000ae
:020000040000fa
:0403180034030000aa
:020000040000fa
:04031c0034030000a6
:020000040000fa
:0403200034030000a2
:020000040000fa
:04032400340300009e
:020000040000fa
:04032800340300009a
:020000040000fa
:04032c003403000096
:020000040000fa
:040330003403000092
:020000040000fa
:04033400340300008e
:020000040000fa
:04033800340300008a
:020000040000fa
:04033c003403000086
:020000040000fa
:040340003403000082
:020000040000fa
:04034400340300007e
:020000040000fa
:04034800340300007a
:020000040000fa
:04034c003403000076
:020000040000fa
:040350003403000072
:020000040000fa
:04035400340300006e
:020000040000fa
:04035800340300006a
:020000040000fa
:04035c003403000066
:020000040000fa
:040360003403000062
:020000040000fa
:04036400340300005e
:020000040000fa
:100400004f8120000e7f24000e01880000000000b4
:10041000000020000000e000020032000001200087
:100420002002880014000700910007000000e0008f
:1004300003003a0080612100010020000200370023
:100440000000200001002000810f70000100320038
:1004500014000700000020000000e000020032004d
:10046000000002000000000058160200000000001a
:100470000040da000000fe004440a9008002200095
:100480000000e0000300320000002000a00188000e
:100490004440a800000006008a1f78008b1f7800e7
:1004a0000000060091018800800478000000eb0045
:1004b0001a003700e284440032a0b4009905ba0063
:1004c000e284440032a0b4009906ba00e2844400f9
:1004d00032a0b4000006eb00476fde00fd07b2005b
:1004e000636ce10003003a00ebff07000000eb0043
:1004f0000a003700606ce10004003a00005deb0088
:100500008b05e900fdff3e00040037006168e10053
:10051000010032000086eb000b00070019c7ba008b
:100520001905ba000e04e00003003a000a00e000da
:10053000e0ff3a0000000600fe07b2009e018800be
:100540008a047800f5ff3700395dba008b05e900b1
:100550000c003200295dba008b05e900080032006a
:100560000c00e00003003a00e284440032a0b40032
:10057000f5ff370019ddba008b05e900faff3a00f4
:100580008904e800e184440032a0b40000000600c1
:10059000801f78000000fa008400a9001004800089
:1005a000610060000000e000040032001000200044
:1005b000804088008200a900020037001028ef0068
:1005c0008200a8000080fa004f007800004006007a
:1005d0000000fa008680a9000080fa0000400600b2
:1005e0000000fa0087a0a9000080fa000040060081
:1005f000801f78000000fa00004080000000e80042
:1006000000408800100020002040880084e0a900fd
:100610000080fa004f00780000400600801f78003c
:100620000000fa00104080000000e8001040880040
:1006300010002000304088008500a9000080fa00ea
:100640004f007800004006000000fa008760a90013
:100650000080fa00004006000000fa008780a90030
:100660000080fa00004006000040da000000fe00b2
:100670000000050003f0a200889fbe008a9fbe0014
:100680008c1f7800fa000700010133006450e1007c
:100690004f0032006420e1005200320003826c00ff
:1006a00007003b000905d0000306d000820f54006c
:1006b0000c065d000200390002003200890178005a
:1006c000030678008582550004003d000003fd000c
:1006d0008103fd008502ea008b854200840f7200d1
:1006e00002003b0060001000e08018006011b800bc
:1006f0000005eb007a28e1000a00390006007800c6
:10070000c75ddd00f707b200878075002d00370058
:10071000828171000a017800610560008180d1004a
:100720000080d3008502e900f9ff3b000604400089
:100730008784480002003b0060041400e0841c0031
:100740000988a300070032008a817100828171004c
:10075000610164008904d1000884d3008b05e8009e
:10076000170037000978a30013003a000b00e000df
:10077000130034008b05e9000804440089844c0010
:100780000a4474000978a3000d003a000b00e00051
:10079000070034008b05e9000804440089844c00fc
:1007a00001003a000b0020000978a300f7ff320097
:1007b0000001eb0002003700828171000a0178001d
:1007c000700007000cf0a70001f0a000b90037008e
:1007d0006420e10002003a00838f6c00b90033000e
:1007e0000801be000200be00b2003700889fbe00b4
:1007f0008a9fbe008c1f78009d000700a400330074
:1008000003866c006450e1002e0032006420e10099
:10081000330032006150e1002f0032006120e1001e
:100820003100320085855500eb07b000090020003b
:1008300008042000050037000804440089844c00a7
:100840000a0031000603430087834b000001530078
:1008500081815b00f8ff33000203be000800a000a6
:100860000804440089844c00f6ff3900c639dd00d5
:100870008301730001003200130020008904d100bd
:100880000884d3000998a300050032000800a700df
:100890000300a0008904d1000884d3008b05e80080
:1008a0008904d1000884d3000001eb000281d2004a
:1008b0003400070001f0a1000cf0a70001f0a00037
:1008c0007c0037006420e1007e0032000801be0099
:1008d0000200be00f7ff37006120e100790032001e
:1008e0006000b800f3ff37000000200001f8270087
:1008f000f0ff370014002000a9003700f4ff2f009c
:10090000a70037000001be00440007000470a700e4
:1009100003f0a10003f8a30013003a006509b10039
:1009200010003200090035006928e100020035009e
:100930000100280000000500000040008180480000
:100940008502e900fcff3a0000000600f88f420033
:10095000050035008100d1000080d3008502e80049
:10096000fcff3a00000006008000eb0000000500dc
:100970004f89de0082017800a40037006011b800c2
:10098000b200370081002000618055000b003d005f
:100990000b00200061fe2f000100e1001d0034006b
:1009a00082817100610164008904d1000884d30050
:1009b0000000e800faff3a007100200061006400c6
:1009c000030070000200600009003200610444006e
:1009d000e0844c000988a500050032008b05e80082
:1009e0006808e10002003a008904d1000884d300bd
:1009f000f20f20000258e10005003d00c75ddd0058
:100a0000f907b20089807500080078000000060030
:100a10000bf827008b00780000000500c70ade00f5
:100a2000f107b200f50fb20008003200e1cf42003a
:100a3000020032000170a00024000500810f700048
:100a4000010032000408050044000500810f700019
:100a500002003a00140005008502e9000000400091
:100a600081c04800fcff3b000170a000240005008d
:100a70000004be00e9ff07000003be000405be003d
:100a80000200be00e5ff0700844f7500000006006d
:100a90000200be006450e100050036006420e10061
:100aa000020036000968a30001003a000800be00f9
:100ab0000160a0004f0678004f05be004f04be0045
:100ac00000000600f0ff2f00f1ff2700f9ff3700bc
:100ad000889fbe008a9fbe008c1f7800e4ff07003d
:100ae000ebff330003866c006450e1002400320009
:100af0006420e100270032006150e1002200320052
:100b00006120e100210032008b854200eb07b1003b
:100b10000134b800003ab8000804420089844a0051
:100b2000013ab8000030b8008880400009014a004e
:100b300004003300000040008180480002014900a9
:100b40008b05e900c909dd00830170000100320056
:100b500013002000c814de004814dd004709de0041
:100b60001200b200c808de000884700085ff07008c
:100b700001f0a1000cf0a70001f0a000cdff3700ac
:100b80006120e100cfff32000801be000200be007c
:100b9000f7ff37006150e100fcff3a00c9ff370062
:100ba000889fbe008a9fbe00841f7800b0ff0700a8
:100bb0004f00780011003300f0ff2f00838f6c008e
:100bc00006003b00040565000a00a7000800370086
:100bd00009f0a6001000200008003700820f540022
:100be000838f5c00030039001000200001003e00ec
:100bf0000000200009f0a7000000ea004f05be0039
:100c00004f04be000000e00000000600881f7800ce
:100c1000030478000300e00007003d0060001000be
:100c2000e080180060011900e081190002003b001b
:100c300001f02d00030037000400070008f0a700b2
:100c400001f0a0004f04780000000600889fbe005d
:100c50008a9fbe000082700004027100048271004d
:100c6000260032000004be000200be006011b80081
:100c70006b092000950220000182cf000a00390094
:100c80000541b1000082cf00070039000541b100e5
:100c90000982cf00040039000541b1000882cf006d
:100ca000010039000541b100054252001200320036
:100cb0000a003b0082817100610164008100d10063
:100cc0000080d3008984d3000884d3008b05e8001a
:100cd0000442e800f7ff3a00070037000804440028
:100ce00089844c0000004800818048008b05e900a1
:100cf0000442e900f9ff3a0022ff07004f05be0059
:080d00004f04be0000000600d4
:020000040000fa
:100d0800666600000641000000000000e0400000a8
:100d180000000000d040000000000000c0400000bb
:100d2800000000000000000000000000c8420000b1
:100d380000000000a0410000000000002041000069
:100d4800000000000000000000000000000000009b
:020000040000fa
:100d58000600fa00004f7800114798001207980023
:100d6800230798001e80fb0021042000810f5000fb
:100d78003f00320031042000810f50007200320021
:100d880011042000810f5000a8003a001e40900076
:100d98000080fb00ea0f500033003e0011002000e5
:100da8000008dd00c1792000810060000100e0003a
:100db8001f003a00630060000000e00001003a00f4
:100dc800290037001e4090000080fb001100200021
:100dd8000008dd008080ea006019800080806000e3
:100de8001e4090000080fb001e0190000010dd00f6
:100df80001007000601988001e4090000080fb0010
:100e0800110020000008dd008080ea000016800044
:100e1800808060001e4090000080fb002e01900042
:100e28000010dd0001007000001688000f00370078
:100e38001e4090000080fb00110020000008dd002b
:100e48008080ea0000168000808060001e409000cc
:100e58000080fb002e0190000010dd0001007000f2
:100e680000168800010037000000000070003700fd
:100e78001e4090000080fb000000e00030003500bc
:100e8800e30f500003003400ef0f50002c003c002b
:100e98001d0037001e4090000080fb000080e80025
:100ea800110020000008dd008080ea006019800041
:100eb800808060001e4090000080fb000080e800f9
:100ec8001e0190000010dd0001007000601988000c
:100ed8001e4090000080fb00110020000008dd008b
:100ee8008080ea0040168000808060001e409000ec
:100ef8000080fb002e0190000010dd000100700052
:100f0800401688000f0037001e4090000080fb004c
:100f1800110020000008dd008080ea0040168000f3
:100f2800808060001e4090000080fb002e01900031
:100f38000010dd0001007000401688000100370035
:100f4800000000003a0037001e4090000080fb00bf
:100f58000000e00030003500e20f500003003400cc
:100f6800e90f50002e003c001d0037001e40900085
:100f78000080fb0066004000110020000008dd0032
:100f88008080ea0060198000808060001e40900028
:100f98000080fb00660040001e0190000010dd008c
:100fa80001007000601988001e4090000080fb005e
:100fb800110020000008dd008080ea008016800013
:100fc800808060001e4090000080fb002e01900091
:100fd8000010dd0001007000801688001100370045
:100fe8001e4090000080fb00110020000008dd007a
:100ff8008080ea0080168000808060001e4090009b
:101008000080fb002e0190000010dd000100700040
:101018008016880003003700000000000100370038
:101028000000000000000000010037000000000080
:101038000080fa00000006000400fa00004f780063
:1010480011479800120798001e80fb002104200019
:10105800810f50002100320031042000810f500020
:101068003300320011042000810f500046003a007e
:101078001e4090000080fb00ea0f500015003e0063
:10108800110020008008dd00f07920000080600059
:101098000000e00001003a000e0037001e409000fa
:1010a8000080fb00110020000008dd008080ea00bd
:1010b80020168000808060001e4090000080fb00a9
:1010c8001e0190000010dd0001007000201688004d
:1010d80001003700000000002c0037001e4090007f
:1010e8000080fb0060004000ef0f50000e003e0043
:1010f8001e4090000080fb00110020000008dd0069
:101108008080ea0060168000808060001e409000a9
:101118000080fb001e0190000010dd00010070003f
:101128006016880001003700000000001700370033
:101138001e4090000080fb0060004000e90f500056
:101148000e003e001e4090000080fb0011002000b1
:101158000008dd008080ea00a01680008080600022
:101168001e4090000080fb001e0190000010dd0072
:1011780001007000a0168800010037000000000080
:101188000000000001003700000000000080fa00a5
:10119800000006000200fa00004f7800114798008e
:1011a8001e80fb0021042000810f50001700320030
:1011b80031042000810f500020003200110420006b
:1011c800810f500029003a001e4090000080fb006b
:1011d800ea0f500027003e00110020008008dd00c3
:1011e800f0792000008060000000e0002300320059
:1011f800111680001e4090000080fb000008de00f1
:101208000040780061406000220037001e409000d6
:101218000080fb0060004000ef0f500019003e0006
:10122800511680001e4090000080fb000008de0080
:101238000040780061406000160037001e409000b2
:101248000080fb0060004000e90f50000f003e00e6
:10125800911680001e4090000080fb000008de0010
:1012680000407800614060000a003700000000007c
:1012780007003700000000000500370000000000ec
:1012880003003700000000000100370000000000e4
:1012980000c0eb000080fa00000006000400fa001d
:1012a800004f7800110798001e80fb0021042000e1
:1012b800810f50000900320031042000810f5000d6
:1012c8000900320011042000810f50000a003a0082
:1012d8009e00900021168800080037009e009000ac
:1012e80061168800050037009e009000a11688004e
:1012f8000000000001003700000000000080fa0034
:10130800000006000200fa00004f78001e80fb0073
:1013180021042000810f5000080032003104200011
:10132800810f50000700320011042000810f500087
:1013380006003a001016800005003700501680009d
:101348000300370090168000010037000000eb0012
:101358000080fa00000006000000fa004116800034
:10136800f03f280000806000401688005116800079
:10137800f03f28000080600050168800010e8000b1
:10138800f0f02f00008060000040a000000e8800f0
:10139800000e8000c000b300000e8800010e80001f
:1013a800c0ff2f0000806000000e8800c221ef00ff
:1013b800c941a900c921a900c901a800c8c1a8003c
:1013c800c8a1a800c881a800c801a900e13480000c
:1013d80000fe2f0000806000f000b300e0348800b9
:1013e800c841a800c1e1a800400120001900070079
:1013f8000080fa00000006000000fa00d0c2a90030
:10140800d0e2a900d2c2a900d2e2a900012e800030
:10141800f0f02f00008060000040a000002e88003f
:10142800002e8000c000b300002e8800012e80002e
:10143800c0ff2f0000806000002e8800c225ef004a
:10144800c905a900c805a800c1e5a8000080fa00e0
:10145800000006000400fa00100798009e009000a3
:10146800900320000088b90000007800000fe90010
:101478001e0078000000e000020035009e007800a1
:10148800210e88000080fa00000006000400fa001f
:10149800100798009e009000900320000088b90073
:1014a80000007800000fe9001e0078000000e0004e
:1014b800020035009e007800212e88000080fa0086
:1014c800000006000800fa00881f7800100798003e
:1014d8002107980062479800200e80008000e800ed
:1014e8009003200000017800110009008280d800d4
:1014f800000f78006011b8001e009000ae00900048
:10150800fafc07000000e0000f003a006e4090006f
:101518000080fb00e20f500006003200e30f50008d
:1015280006003200e10f50005a003a00d621ef00c1
:101538005b003700d821ef0059003700da21ef00af
:10154800000000005600370018c0b3000200200059
:10155800832c24001e009000ae009000e3fc0700de
:101568000000e000010034000044eb000804e00043
:101578004b0032006e4090000080fb00e20f5000ec
:1015880019003200e30f50002c003200e10f500028
:1015980042003a001e0078008000eb00f5fc0700ce
:1015a800020020004326240047fd07000200200017
:1015b800832c24008bfc07000001be002cfc0700d4
:1015c8001e019000ae0190003ffd070002002000c0
:1015d80003f8230025fc0700c8fc0700000078007a
:1015e800b00e88002e0037001e0078008000eb0047
:1015f800e0fc0700020020004326240032fd07001b
:1016080002002000832c240076fc07000001be00a5
:1016180017fc07001e019000ae0190002afd07008c
:101628000200200003f8230010fc0700b3fc0700a9
:1016380000007800c00e8800190037001e007800ee
:101648008000eb00cbfc07000200200043262400aa
:101658001dfd070002002000832c240061fc070008
:101668000001be0002fc07001e019000ae019000c0
:1016780015fd07000200200003f82300fbfb07000c
:101688009efc070000007800d00e880000000000d3
:1016980003003700000000000100370000000000d0
:1016a8004f0478000080fa00000006000600fa00e7
:1016b800881f78001007980021079800200e8000e6
:1016c8008000e80090032000000178001100090064
:1016d8008280d800000f78006011b8001e009000ca
:1016e800ae00900081fc07000000e00002003a0014
:1016f800d625ef001f00370018c0b30002002000f5
:10170800832c24001e009000ae00900077fc070098
:101718000000e000010034000044eb000804e00091
:10172800140032001e0078008000eb0091fc0700d6
:101738000200200043262400e3fc070002002000ea
:10174800832c240027fc07000001be00c8fb07000b
:101758001e019000ae019000dbfc07000200200093
:1017680003f82300c1fb070064fc070000007800b1
:10177800b02e88004f0478000080fa0000000600b0
:101788000600fa00000f7800120798002307980057
:101798001e0078002fff070012c0b3001e00900043
:1017a800ae00900047ff070022c0b3001e00900063
:1017b800ae00900043ff070032c0b3001e00900047
:1017c800ae0090003fff07000080fa00000006000e
:1017d8000600fa00000f7800120798002307980007
:1017e8001e00780029ff07001e009000ae00900040
:1017f800aeff07000080fa00000006000000fa00b3
:10180800001280004600de00614060000080fb009e
:101818000080fa00000006000000fa0000128000b4
:101828000000d100614060000080fb000080fa00e9
:10183800000006000000fa00001280000040780056
:10184800614060000080fb000080fa000000060094
:101858000000fa004022ef0001368000f00f2e0051
:101868000080600000b0a00000368800413580008c
:10187800f00f2e00008060000080a0004035880036
:10188800c822a9002c63a8004135800000fe2f0063
:101898000080600040358800c802a8002c43a800da
:1018a8001136800000fe2f00008060009000b30019
:1018b80010368800c842a9002c83a800cc42a80092
:1018c80011368000f00f2e0080806000007020002c
:1018d8000100700010368800c862a9002ca3a80077
:1018e800c0e2a900d0c2a800b013200010128800de
:1018f8004422ef000012800000f0a00000128800cf
:101908000080fa00000006000000fa0000128000c3
:1019180000f0a100001288000080fa000000060014
:101928000200fa00004f7800bbff07000000e0004b
:101938000c003a00ca42a9001e80fb004012880031
:1019480000000000b4ff07000000e000fdff3a00bf
:1019580000000000b7ff07000000e000fdff3200b4
:10196800ca42a80040128000004078000080fa00b7
:10197800000006000400fa0020479800314798004c
:10198800a5ff07000000e0001a003a00ca42a900bb
:101998002e4090000080fb004012880000000000ec
:1019a8009dff07000000e000fdff3a000000000076
:1019b800a0ff07000000e000fdff32004012800099
:1019c800004f78003e4090000080fb0040128800e5
:1019d8000000000090ff07000000e000fdff3a0053
:1019e8000000000093ff07000000e000fdff320048
:1019f800ca42a80040128000004078000080fa0027
:101a0800000006000400fa00004f78001147980013
:101a1800224798001e80fb00e60f50001c00320091
:101a2800e60f500007003c00e10f500014003200a0
:101a3800e30f50000d0032000000e0000800320003
:101a480021003700e80f500018003200e80f50005e
:101a580013003500ea0f5000170032001a00370053
:101a680000c0eb00aeff0700190037001e409000d1
:101a78000054a000ae409000beff070014003700dd
:101a88008040eb001e409000baff070010003700ae
:101a9800ae40900000cab300b6ff07000c00370044
:101aa80010ceb3009eff07000900370020ceb30018
:101ab8009bff07000600370031c7b30000c5b3001d
:101ac800acff07000200370000c0eb0094ff0700de
:101ad8000080fa00000006000600fa0010079800cf
:101ae800414798004cff07000000e00027003a003b
:101af800ca42a9004e4090000080fb0040128800b6
:101b08000000000044ff07000000e000fdff3a006d
:101b18000000000047ff07000000e000fdff320062
:101b280040128000804078001e0090000148780034
:101b38000040eb00004f7800100037004822ef000b
:101b48000000000034ff07000000e000fdff3a003d
:101b58000000000037ff07000000e000fdff320032
:101b68001e80fb009e009000008040004112800013
:101b780081407800014878001e4fe8001e40780038
:101b8800e44f5000edff3600ca42a8004012800022
:101b9800004078000080fa00000006000600fa0005
:101ba80010079800414798001bff07000000e0005d
:101bb80025003a00ca42a9004e4090000054a000f7
:101bc8000080fb00401288000000000012ff0700a0
:101bd8000000e000fdff3a000000000015ff0700cc
:101be8000000e000fdff32000040eb00004f7800ed
:101bf8001100370040128000104798001e80fb003b
:101c08009e00900000804000104078000080fb009b
:101c18004012880000000000fffe07000000e000fe
:101c2800fdff3a000000000002ff07000000e0008e
:101c3800fdff32001e4fe8001e407800e44f5000c0
:101c4800ecff3600ca42a80040128000004078002d
:101c58000080fa00000006000000fa000621ef00ec
:101c680011e1a90011a1a90010c1a90081088000f3
:101c7800f0fc2f00008060000040a0008008880071
:101c88001061a9001021a90031058000f0ff28008b
:101c98000080600000c0a0003005880084e0a90032
:101ca80094e0a8000080fa00000006000000fa0096
:101cb8008008800000f0a000800888000080fa00fa
:101cc800000006000000fa008008800000f0a10073
:101cd800800888000080fa00000006000000fa0072
:101ce8000621ef000080fa00000006000200fa005a
:101cf800000f78009e007800310888000080fa0004
:101d0800000006000200fa00000f78009e0078002c
:101d1800610888000080fa00000006000000fa0050
:101d2800e01c2000600888000080fa00000006001f
:101d38000200fa00004f78001e4078000004e0001e
:101d48000d003200d0c8b3009e40780080cf50000c
:101d580009003e001e80fb008000eb0005fb070029
:101d680062302b00d3b023009efa0700e3fa070085
:101d780000007800600888000080fa000000060073
:101d88000000fa00300880000080fa000000060019
:101d98000000fa000a21ef0013e1a90013a1a9002d
:101da80012c1a90091088000000320000100700002
:101db800900888001221a9004105800080ff2f00ab
:101dc800008060000010a000400588008500a90080
:101dd8009500a8000080fa00000006000000fa0044
:101de8009008800000f0a000900888000080fa00a9
:101df800000006000000fa009008800000f0a10032
:101e0800900888000080fa00000006000000fa0030
:101e18000a21ef000080fa00000006000200fa0024
:101e2800000f78009e007800510888000080fa00b2
:101e3800000006000200fa00000f78009e007800fb
:101e4800710888000080fa00000006000200fa000d
:101e5800000f78001e0078000000e0000d0032003e
:101e6800701b21009e007800808f500009003e0002
:101e78001e0078008000eb00befa0700b28b2b0032
:101e8800d3d8230057fa07009cfa0700000078000f
:101e9800700888000080fa00000006000000fa00c0
:101ea800500880000080fa00000006000200fa00d6
:101eb800004f78001421ef001fe1a9001fa1a9001d
:101ec8001ec1a9009e40780063c060000080fb002e
:101ed800630060004400dd00f2088000f1fc2f0080
:101ee8008100610001007000f00888001e21a9002f
:101ef80081058000f0ff28000080600000e0a0005d
:101f0800800588008760a9009760a8000080fa0013
:101f1800000006000000fa00f008800000f0a000b1
:101f2800f00888000080fa00000006000000fa00af
:101f3800f008800000f0a100f00888000080fa0096
:101f4800000006000000fa001421ef000080fa00eb
:101f5800000006000200fa00000f78009e007800da
:101f6800a10888000080fa00000006000200fa00bc
:101f7800000f78009e007800d10888000080fa00e1
:101f8800000006000000fa00a00880000080fa00a7
:101f9800000006000200fa00004f78001821ef0048
:101fa80021e1a90021a1a90020c1a9009e40780033
:101fb80063c060000080fb00630060004400dd0037
:101fc80002098000f1fc2f0081006100010070000f
:101fd800000988002021a9009105800080ff2f00ba
:101fe800008060005000b300900588008780a90039
:101ff8009780a8000080fa00000006000000fa00a0
:102008000009800000f0a000000988000080fa00a4
:10201800000006000000fa000009800000f0a1009e
:10202800000988000080fa00000006000000fa009d
:102038001821ef000080fa00000006000200fa00f4
:10204800000f78009e007800c10888000080fa0020
:10205800000006000200fa00000f78009e007800d9
:10206800e10888000080fa00000006000000fa007d
:10207800c00880000080fa00000006001600fa0080
:10208800889fbe000040eb0035020700100798004b
:102098001e0090008000eb0036fa070012ae270001
:1020a8004304240088fa070002002f00f357240095
:1020b800ccf907002007980031079800020020009b
:1020c800030824002e009000be0090007efa07004e
:1020d800400798005107980018c0b30062662600b0
:1020e800631024004e009000de00900001fa070003
:1020f8000000e00001003c000044eb000804e000a0
:102108000200320040c6b3006300370018c0b300b5
:1021180002002000030c24004e009000de00900016
:10212800f2f907000000e000010035000044eb0070
:102138000804e000020032000040eb0056003700bf
:102148000040eb00004f7800010037001e4fe80008
:102158001e80fb00c200dd004068280000804000af
:102168001000be0018c0b3002e019000be01900000
:10217800e0f907000000e00001003c000044eb002b
:102188000804e000f1ff3a001e80fb00c200dd00f9
:1021980040682800008040001002be001e80fb003e
:1021a8000000e800c200dd00406828000080400010
:1021b8001000be000001be000400be002cf907009c
:1021c8000004be001e80fb0065004000c200dd0068
:1021d80040682800008040001002be001e80fb00fe
:1021e8000000e80065004000c200dd0040682800eb
:1021f800008040001000be000001be000400be00c8
:102208001bf907000001be000800be0075f90700b1
:1022180060079800710798001e80fb00c200dd006f
:1022280040682800008040001000be002e01900089
:10223800be0190000df90700000f9800110f9800db
:102248006e019000fe0190000e0890009e0890001c
:102258001dfa0700a9f90700405798001e80fb00e7
:1022680065004000c200dd00406828000080400092
:102278001004be004e5090000080fb00cf80de00ae
:10228800b9f907000001be000800be00f7f8070012
:102298009af90700004078004f04be000080fa0059
:1022a800000006000000fa009cfe0700400620001f
:1022b800e6fe07000828ef000a28ef000c28ef00c8
:1022c8000e28ef000428ef000628ef000028ef0092
:1022d8000228ef0075fe0700c0fe07000100370066
:1022e8000000000020408000e10f500010003a007c
:1022f8000428ef0000408000e50f500003003a007a
:10230800100020004040880008003700004080008e
:10231800e90f5000050036000028ef0010002000eb
:10232800404088001000200050408800020207004a
:1023380040408000e10f500002003a000828ef00fa
:102348000102070050408000e10f500002003a00ef
:102358000a28ef000002070030408000e10f50001b
:1023680010003a000628ef0010408000e50f5000ea
:1023780003003a0010002000604088000800370081
:1023880010408000e90f5000050036000228ef00d9
:102398001000200060408800100020007040880075
:1023a800f101070060408000e10f500002003a0090
:1023b8000c28ef00f001070070408000e10f50008a
:1023c800c7ff3a000e28ef00ef010700c5ff3700ee
:1023d8000000fa00601980000040a0006019880021
:1023e800c842a900c0e2a900d0c2a9000080fa0032
:1023f800000006000000fa00601680004200de00bf
:102408006140600000c0ea00614060000080fb009d
:10241800610060004200dd00511680000120a1002b
:1024280001007000501688000080fa0000000600c5
:102438000000fa00201680004700de0061406000be
:1024480000c0ea00614060000080fb00610060009d
:102458004700dd00111680000170a1000100700026
:10246800101688000080fa00000006000000fa003c
:10247800a01680004600de006140600000c0ea004f
:10248800614060000080fb00610060004600dd00e4
:10249800911680000160a10001007000901688006c
:1024a8000080fa00000006000c00fa000040eb0073
:1024b800004f78006000b8001007980021079800c6
:1024c8006000b80030079800410798000501070030
:1024d800204f98000040eb00104798002300370079
:1024e8001e4090000080fb00110020000008dd0065
:1024f800804078002e48900000c06000304f98005f
:102508003e4890000004e0001500320010c0b300ff
:10251800004f78001e4090000080fb006a00b90060
:1025280000007800cf80de000ff907000001be0030
:102538001e009000ae0090004df8070010079800ac
:10254800210798000200200003f823003e009000b5
:10255800ce00900046f80700300798004107980021
:102568001e4090000040e800104798001e40900070
:10257800e54f5000daff36001e4078000004e00006
:102588000e003a0012c8bf00e94f500002003e009a
:102598000040eb00120037002181200091407800b4
:1025a80080c2b30080cf50000200360020c3b300c1
:1025b8000b00370012c8bf00090037003e01900029
:1025c800ce0190001e009000ae00900085f8070034
:1025d800caf807000040780012e8b70012c8bf0028
:1025e8000080fa00000006000200fa00aeff0700b3
:1025f80021c3b30000cf500011c4b3001ec0400077
:10260800104798001e409000fc00070091c1b300dd
:102618000040eb008c0007000080fa000000060074
:102628000400fa00881f780094fe07000080fb0071
:102638008000eb00cff80700008fbe0018c0b30081
:1026480002002000432b24001e00be00a7f807004c
:102658000000e000010035000044eb000804e00041
:1026680009003200a1c0b30010c4b300c9fa0700c2
:102678000080fb000080ea0000017800a1c0b300e0
:1026880010c4b3006cfa07004f0478000080fa0009
:10269800000006000000fa0081e0a80070c0b30046
:1026a8000600070060c0b3001400070050c0b30064
:1026b800250007000080fa00000006000200fa006a
:1026c800004f78009e40780067c060000080fb00e3
:1026d800670060002205800081ff2f0081006100f3
:1026e80001007000200588008400a9009400a8005b
:1026f8008200a8000080fa00000006000200fa002c
:10270800004f78000134800000f0210001007000c3
:10271800003488009e40780067c060000080fb009d
:10272800670060007205800081ff2f008100610052
:1027380001007000700588008680a9009680a800b6
:102748000080fa00000006000200fa00004f78003e
:102758001134800000fe2f00008060006001b3008b
:10276800103488009e40780067c060000080fb003d
:10277800670060004400dd0092058000f1f82f003a
:1027880081006100010070009005880087a0a90001
:1027980097a0a8008240a8000080fa000000060068
:1027a8000000fa008001eb001200200091c0b30085
:1027b80010c4b30066f90700e7fa07000080fa00c2
:1027c800000006000200fa00004f78001e80fb009f
:1027d8000000e00003003200e10f50000600320064
:1027e8000a0037000001eb0091c0b30010c4b30029
:1027f80011fa0700050037001200200091c0b3004d
:1028080010c4b3000cfa0700000000000080fa00b2
:10281800000006000200fa00004f780040c6b3002e
:102828009e40780080cf500005003e001e80fb00cf
:102838008000eb004ff8070022c0b30021fb07001f
:102848000080fa00000006000200fa00004f78003d
:10285800114798001e407800daff07001e409000dc
:10286800ecff07000080fa00000006000400fa00f0
:10287800100798000040eb00004f78000600370072
:102888009e019000120020009e40780030c4b300e2
:102898002ff907001e4fe8001e407800e54f500052
:1028a800f7ff36000080fa00000006000200fa0078
:1028b8000040eb00004f78000500370012002000b0
:1028c8009e40780030c4b300dbf907001e4fe800d3
:1028d8001e407800e54f5000f8ff36000080fa00ef
:1028e800000006000000fa000000eb00dfff070010
:1028f800eeff07005002200001002000bc00070086
:1029080010002000d9ff0700d03920000100200066
:10291800b700070030c4b3007afa07000040780017
:10292800f043b2000080fa00000006000000fa0040
:10293800c002a800c022a8002c03a9002c23a900cb
:102948002023ef002223ef002143a80000f02100fc
:102958002019880021e3a8000080fa000000060082
:102968000200fa00004f780040198000004078000b
:102978007f4060008080fb001e80fb00808f50003d
:10298800090032009e4078007fc060000080fb0094
:102998007f0060004219800001fe2f008100610065
:1029a80001007000401988002023a800900b200027
:1029b800010020008e0007002023a900000000006d
:1029c80000198000610060000000e000fcff320098
:1029d800001880000080fa00000006000000fa00dd
:1029e8005dfa070012c0b3000000200001102400a7
:1029f800b4fa07000080fa00000006000600fa009a
:102a080040479800ce409000b0c3b30080cf50003c
:102a180002003e00c0c3b30040479800ce4090007b
:102a280080c7b30080cf50000200360080c7b300d3
:102a3800404798004e4090000080fb006700b900b6
:102a4800000078006004b100cf80de00c6f7070000
:102a5800020020000332240062f707000200200071
:102a68000308240002f70700008fbe0012c0b3005d
:102a78001e00be0093fa07000080fa00000006005e
:102a88000000fa00d122a800c9e2a800e1348000c1
:102a980000fe2f0000806000f000b300e0348800e2
:102aa800e1348000f00f2e0080806000009021004b
:102ab80001007000e0348800010f800070fe2f00d4
:102ac800008060000040a000000f8800010f800017
:102ad8000070200001007000000f880000d027005f
:102ae800200f88000080fa00000006000000fa00ad
:102af800200f80000080fa00000006000000fa00a5
:102b080000d02700200f88000080fa00000006008f
:102b18000000fa00510007008001eb0012002000bd
:102b2800a1c0b30010c4b30089f807001a00070059
:102b38000080fa00000006000000fa0019000700f3
:102b48000080fa00000006000000fa0018000700e4
:102b58000080fa00000006000000fa0017000700d5
:102b68000080fa00000006000000fa0016000700c6
:102b78000080fa00000006000000fa0016000700b6
:102b88000080fa00000006000000fa0015000700a7
:102b98000080fa00000006000000fa000080fa0039
:102ba800000006000000fa000080fa00000006009d
:102bb8000000fa000080fa00000006000000fa0099
:102bc8000080fa00000006000000fa0094fe0700ea
:102bd8000080fa00000006000000fa000080fa00f9
:102be800000006000000fa000080fa00000006005d
:020000040000fa
:102bf800f03fb1000180b10006003500ee03090086
:102c080000000000403fb1000180b100fbff3d0023
:102c18001000b000203fb00002003500008009001d
:082c280000000000000006009e
:020000040000fa
:102c30001008000002000000000000000008000072
:102c40000800000000000000080800000800000064
:102c50000000000012080000020000000000000058
:042c60000000000070
:020000040000fa
:102c64000000fa000900070031ff0700bbf9070064
:102c740089fe0700f7fa070082ff0700f7fb070049
:102c840044fc07000080fa00000006000000fa007f
:102c9400413a800000fc2f00008060000000a0008a
:102ca400403a88000080fa00000006000000fa00a4
:102cb40098ff0700bbfe070049ff07007afd0700e5
:042cc400ffff3700d7
:020000040000fa
:0200000401f009
:04000c008000000070
:020000040000fa
:0200000401f009
:04001c00feff0000e3
:00000001FF
